{"abi":[{"type":"constructor","inputs":[{"name":"_taskIssuerAddress","type":"address","internalType":"address"},{"name":"_machineHash","type":"bytes32","internalType":"bytes32"}],"stateMutability":"nonpayable"},{"type":"function","name":"careResults","inputs":[],"outputs":[{"name":"","type":"string","internalType":"string"}],"stateMutability":"view"},{"type":"function","name":"computationSent","inputs":[{"name":"","type":"bytes32","internalType":"bytes32"}],"outputs":[{"name":"","type":"bool","internalType":"bool"}],"stateMutability":"view"},{"type":"function","name":"coprocessorCallbackOutputsOnly","inputs":[{"name":"_machineHash","type":"bytes32","internalType":"bytes32"},{"name":"_payloadHash","type":"bytes32","internalType":"bytes32"},{"name":"outputs","type":"bytes[]","internalType":"bytes[]"}],"outputs":[],"stateMutability":"nonpayable"},{"type":"function","name":"get","inputs":[],"outputs":[{"name":"","type":"string","internalType":"string"}],"stateMutability":"view"},{"type":"function","name":"machineHash","inputs":[],"outputs":[{"name":"","type":"bytes32","internalType":"bytes32"}],"stateMutability":"view"},{"type":"function","name":"runExecution","inputs":[{"name":"input","type":"bytes","internalType":"bytes"}],"outputs":[],"stateMutability":"nonpayable"},{"type":"function","name":"taskIssuer","inputs":[],"outputs":[{"name":"","type":"address","internalType":"contract ITaskIssuer"}],"stateMutability":"view"},{"type":"event","name":"ResultReceived","inputs":[{"name":"inputPayloadHash","type":"bytes32","indexed":true,"internalType":"bytes32"},{"name":"output","type":"bytes","indexed":false,"internalType":"bytes"}],"anonymous":false},{"type":"error","name":"ComputationNotFound","inputs":[{"name":"payloadHash","type":"bytes32","internalType":"bytes32"}]},{"type":"error","name":"InsufficientFunds","inputs":[{"name":"value","type":"uint256","internalType":"uint256"},{"name":"balance","type":"uint256","internalType":"uint256"}]},{"type":"error","name":"InvalidOutputLength","inputs":[{"name":"length","type":"uint256","internalType":"uint256"}]},{"type":"error","name":"InvalidOutputSelector","inputs":[{"name":"selector","type":"bytes4","internalType":"bytes4"},{"name":"expected","type":"bytes4","internalType":"bytes4"}]},{"type":"error","name":"MachineHashMismatch","inputs":[{"name":"current","type":"bytes32","internalType":"bytes32"},{"name":"expected","type":"bytes32","internalType":"bytes32"}]},{"type":"error","name":"UnauthorizedCaller","inputs":[{"name":"caller","type":"address","internalType":"address"}]}],"bytecode":{"object":"0x6080604052348015600e575f5ffd5b50604051610bde380380610bde833981016040819052602b916052565b600180546001600160a01b0319166001600160a01b0393909316929092179091555f556087565b5f5f604083850312156062575f5ffd5b82516001600160a01b03811681146077575f5ffd5b6020939093015192949293505050565b610b4a806100945f395ff3fe608060405234801561000f575f5ffd5b506004361061007a575f3560e01c80634af97440116100585780634af97440146100c757806358f6e29f146100f25780636d4ce63c14610105578063dca588c11461010d575f5ffd5b80630686b8251461007e57806325daa7061461009c57806339bdee65146100b2575b5f5ffd5b61008661013f565b6040516100939190610656565b60405180910390f35b6100a45f5481565b604051908152602001610093565b6100c56100c036600461072d565b6101cb565b005b6001546100da906001600160a01b031681565b6040516001600160a01b039091168152602001610093565b6100c5610100366004610767565b6101d7565b6100866103a0565b61012f61011b3660046107e6565b60026020525f908152604090205460ff1681565b6040519015158152602001610093565b6003805461014c906107fd565b80601f0160208091040260200160405190810160405280929190818152602001828054610178906107fd565b80156101c35780601f1061019a576101008083540402835291602001916101c3565b820191905f5260205f20905b8154815290600101906020018083116101a657829003601f168201915b505050505081565b6101d481610430565b50565b6001546001600160a01b031633146102095760405163d86ad9cf60e01b81523360048201526024015b60405180910390fd5b5f548414610237575f5460405163ce2509df60e01b8152610200918691600401918252602082015260400190565b5f8381526002602052604090205460ff1661026857604051637268e7ab60e11b815260048101849052602401610200565b5f5b8181101561038557365f84848481811061028657610286610835565b90506020028101906102989190610849565b9092509050600381116102c157604051633dbd2b1360e11b815260048101829052602401610200565b5f6102cf6004828486610893565b6102d8916108ba565b9050365f6102e98460048188610893565b9092509050633da7291b60e01b6001600160e01b03198416016103205761031b896103168385018561072d565b6104b9565b610374565b63dc857e9160e01b6001600160e01b03198416016103425761031b8282610517565b60405163bd210a1960e01b81526001600160e01b03198416600482015263c258d6e560e01b6024820152604401610200565b50506001909301925061026a915050565b5050505f908152600260205260409020805460ff1916905550565b6060600380546103af906107fd565b80601f01602080910402602001604051908101604052809291908181526020018280546103db906107fd565b80156104265780601f106103fd57610100808354040283529160200191610426565b820191905f5260205f20905b81548152906001019060200180831161040957829003601f168201915b5050505050905090565b80516020808301919091205f81815260029092526040808320805460ff191660019081179091555492549051631590106b60e11b815291926001600160a01b031691632b2020d69161048891869030906004016108f2565b5f604051808303815f87803b15801561049f575f5ffd5b505af11580156104b1573d5f5f3e3d5ffd5b505050505050565b808060200190518101906104cd9190610922565b6003906104da90826109e3565b50817f11ee75453d1327abdfe4f7a8ad4821587837391f365bef110620811d7a2fa5918260405161050b9190610656565b60405180910390a25050565b5f80606061052784860186610a9e565b919450925090505f806105446001600160a01b0386168585610579565b9092509050816105705760405162fae2d560e21b81526004810185905260248101829052604401610200565b50505050505050565b5f8030803180861115610592575f9350915061060c9050565b5f6060886001600160a01b031688886040516105ae9190610afe565b5f6040518083038185875af1925050503d805f81146105e8576040519150601f19603f3d011682016040523d82523d5f602084013e6105ed565b606091505b509092509050816106015761060181610614565b506001945090925050505b935093915050565b80515f03610620575f5ffd5b805181602001fd5b5f81518084528060208401602086015e5f602082860101526020601f19601f83011685010191505092915050565b602081525f6106686020830184610628565b9392505050565b634e487b7160e01b5f52604160045260245ffd5b604051601f8201601f1916810167ffffffffffffffff811182821017156106ac576106ac61066f565b604052919050565b5f67ffffffffffffffff8211156106cd576106cd61066f565b50601f01601f191660200190565b5f82601f8301126106ea575f5ffd5b81356106fd6106f8826106b4565b610683565b818152846020838601011115610711575f5ffd5b816020850160208301375f918101602001919091529392505050565b5f6020828403121561073d575f5ffd5b813567ffffffffffffffff811115610753575f5ffd5b61075f848285016106db565b949350505050565b5f5f5f5f6060858703121561077a575f5ffd5b8435935060208501359250604085013567ffffffffffffffff81111561079e575f5ffd5b8501601f810187136107ae575f5ffd5b803567ffffffffffffffff8111156107c4575f5ffd5b8760208260051b84010111156107d8575f5ffd5b949793965060200194505050565b5f602082840312156107f6575f5ffd5b5035919050565b600181811c9082168061081157607f821691505b60208210810361082f57634e487b7160e01b5f52602260045260245ffd5b50919050565b634e487b7160e01b5f52603260045260245ffd5b5f5f8335601e1984360301811261085e575f5ffd5b83018035915067ffffffffffffffff821115610878575f5ffd5b60200191503681900382131561088c575f5ffd5b9250929050565b5f5f858511156108a1575f5ffd5b838611156108ad575f5ffd5b5050820193919092039150565b80356001600160e01b031981169060048410156108eb576001600160e01b0319600485900360031b81901b82161691505b5092915050565b838152606060208201525f61090a6060830185610628565b905060018060a01b0383166040830152949350505050565b5f60208284031215610932575f5ffd5b815167ffffffffffffffff811115610948575f5ffd5b8201601f81018413610958575f5ffd5b80516109666106f8826106b4565b81815285602083850101111561097a575f5ffd5b8160208401602083015e5f91810160200191909152949350505050565b601f8211156109de57805f5260205f20601f840160051c810160208510156109bc5750805b601f840160051c820191505b818110156109db575f81556001016109c8565b50505b505050565b815167ffffffffffffffff8111156109fd576109fd61066f565b610a1181610a0b84546107fd565b84610997565b6020601f821160018114610a43575f8315610a2c5750848201515b5f19600385901b1c1916600184901b1784556109db565b5f84815260208120601f198516915b82811015610a725787850151825560209485019460019092019101610a52565b5084821015610a8f57868401515f19600387901b60f8161c191681555b50505050600190811b01905550565b5f5f5f60608486031215610ab0575f5ffd5b83356001600160a01b0381168114610ac6575f5ffd5b925060208401359150604084013567ffffffffffffffff811115610ae8575f5ffd5b610af4868287016106db565b9150509250925092565b5f82518060208501845e5f92019182525091905056fea264697066735822122038371cbd16f924540ceae743fdcd1b23855a57e93d5efb50185a5c1f8fa14acf64736f6c634300081c0033","linkReferences":{}},"methodIdentifiers":{"careResults()":"0686b825","computationSent(bytes32)":"dca588c1","coprocessorCallbackOutputsOnly(bytes32,bytes32,bytes[])":"58f6e29f","get()":"6d4ce63c","machineHash()":"25daa706","runExecution(bytes)":"39bdee65","taskIssuer()":"4af97440"},"id":6}