{"abi":[{"type":"constructor","inputs":[{"name":"_taskIssuerAddress","type":"address","internalType":"address"},{"name":"_machineHash","type":"bytes32","internalType":"bytes32"}],"stateMutability":"nonpayable"},{"type":"function","name":"computationSent","inputs":[{"name":"","type":"bytes32","internalType":"bytes32"}],"outputs":[{"name":"","type":"bool","internalType":"bool"}],"stateMutability":"view"},{"type":"function","name":"coprocessorCallbackOutputsOnly","inputs":[{"name":"_machineHash","type":"bytes32","internalType":"bytes32"},{"name":"_payloadHash","type":"bytes32","internalType":"bytes32"},{"name":"outputs","type":"bytes[]","internalType":"bytes[]"}],"outputs":[],"stateMutability":"nonpayable"},{"type":"function","name":"machineHash","inputs":[],"outputs":[{"name":"","type":"bytes32","internalType":"bytes32"}],"stateMutability":"view"},{"type":"function","name":"runExecution","inputs":[{"name":"input","type":"bytes","internalType":"bytes"}],"outputs":[],"stateMutability":"nonpayable"},{"type":"function","name":"taskIssuer","inputs":[],"outputs":[{"name":"","type":"address","internalType":"contract ITaskIssuer"}],"stateMutability":"view"},{"type":"error","name":"ComputationNotFound","inputs":[{"name":"payloadHash","type":"bytes32","internalType":"bytes32"}]},{"type":"error","name":"InsufficientFunds","inputs":[{"name":"value","type":"uint256","internalType":"uint256"},{"name":"balance","type":"uint256","internalType":"uint256"}]},{"type":"error","name":"InvalidOutputLength","inputs":[{"name":"length","type":"uint256","internalType":"uint256"}]},{"type":"error","name":"InvalidOutputSelector","inputs":[{"name":"selector","type":"bytes4","internalType":"bytes4"},{"name":"expected","type":"bytes4","internalType":"bytes4"}]},{"type":"error","name":"MachineHashMismatch","inputs":[{"name":"current","type":"bytes32","internalType":"bytes32"},{"name":"expected","type":"bytes32","internalType":"bytes32"}]},{"type":"error","name":"UnauthorizedCaller","inputs":[{"name":"caller","type":"address","internalType":"address"}]}],"bytecode":{"object":"0x6080604052348015600e575f5ffd5b50604051610822380380610822833981016040819052602b916052565b600180546001600160a01b0319166001600160a01b0393909316929092179091555f556087565b5f5f604083850312156062575f5ffd5b82516001600160a01b03811681146077575f5ffd5b6020939093015192949293505050565b61078e806100945f395ff3fe608060405234801561000f575f5ffd5b5060043610610055575f3560e01c806325daa7061461005957806339bdee65146100745780634af974401461008957806358f6e29f146100b4578063dca588c1146100c7575b5f5ffd5b6100615f5481565b6040519081526020015b60405180910390f35b610087610082366004610506565b6100f9565b005b60015461009c906001600160a01b031681565b6040516001600160a01b03909116815260200161006b565b6100876100c2366004610540565b610105565b6100e96100d53660046105bf565b60026020525f908152604090205460ff1681565b604051901515815260200161006b565b610102816102cd565b50565b6001546001600160a01b031633146101375760405163d86ad9cf60e01b81523360048201526024015b60405180910390fd5b5f548414610165575f5460405163ce2509df60e01b815261012e918691600401918252602082015260400190565b5f8381526002602052604090205460ff1661019657604051637268e7ab60e11b81526004810184905260240161012e565b5f5b818110156102b257365f8484848181106101b4576101b46105d6565b90506020028101906101c691906105ea565b9092509050600381116101ef57604051633dbd2b1360e11b81526004810182905260240161012e565b5f6101fd6004828486610634565b6102069161065b565b9050365f6102178460048188610634565b9092509050633da7291b60e01b6001600160e01b031984160161024d576102488961024483850185610506565b5050565b6102a1565b63dc857e9160e01b6001600160e01b031984160161026f576102488282610356565b60405163bd210a1960e01b81526001600160e01b03198416600482015263c258d6e560e01b602482015260440161012e565b505060019093019250610198915050565b5050505f908152600260205260409020805460ff1916905550565b80516020808301919091205f81815260029092526040808320805460ff191660019081179091555492549051631590106b60e11b815291926001600160a01b031691632b2020d6916103259186903090600401610693565b5f604051808303815f87803b15801561033c575f5ffd5b505af115801561034e573d5f5f3e3d5ffd5b505050505050565b5f806060610366848601866106e2565b919450925090505f806103836001600160a01b03861685856103b8565b9092509050816103af5760405162fae2d560e21b8152600481018590526024810182905260440161012e565b50505050505050565b5f80308031808611156103d1575f9350915061044b9050565b5f6060886001600160a01b031688886040516103ed9190610742565b5f6040518083038185875af1925050503d805f8114610427576040519150601f19603f3d011682016040523d82523d5f602084013e61042c565b606091505b509092509050816104405761044081610453565b506001945090925050505b935093915050565b80515f0361045f575f5ffd5b805181602001fd5b634e487b7160e01b5f52604160045260245ffd5b5f82601f83011261048a575f5ffd5b813567ffffffffffffffff8111156104a4576104a4610467565b604051601f8201601f19908116603f0116810167ffffffffffffffff811182821017156104d3576104d3610467565b6040528181528382016020018510156104ea575f5ffd5b816020850160208301375f918101602001919091529392505050565b5f60208284031215610516575f5ffd5b813567ffffffffffffffff81111561052c575f5ffd5b6105388482850161047b565b949350505050565b5f5f5f5f60608587031215610553575f5ffd5b8435935060208501359250604085013567ffffffffffffffff811115610577575f5ffd5b8501601f81018713610587575f5ffd5b803567ffffffffffffffff81111561059d575f5ffd5b8760208260051b84010111156105b1575f5ffd5b949793965060200194505050565b5f602082840312156105cf575f5ffd5b5035919050565b634e487b7160e01b5f52603260045260245ffd5b5f5f8335601e198436030181126105ff575f5ffd5b83018035915067ffffffffffffffff821115610619575f5ffd5b60200191503681900382131561062d575f5ffd5b9250929050565b5f5f85851115610642575f5ffd5b8386111561064e575f5ffd5b5050820193919092039150565b80356001600160e01b0319811690600484101561068c576001600160e01b0319600485900360031b81901b82161691505b5092915050565b838152606060208201525f83518060608401528060208601608085015e5f8382016080908101919091526001600160a01b03949094166040840152601f01601f19169091019091019392505050565b5f5f5f606084860312156106f4575f5ffd5b83356001600160a01b038116811461070a575f5ffd5b925060208401359150604084013567ffffffffffffffff81111561072c575f5ffd5b6107388682870161047b565b9150509250925092565b5f82518060208501845e5f92019182525091905056fea2646970667358221220d089f58a01c5cf0bb9795d3028b7dafd16a872461d31aa813baf951cb65de9f964736f6c634300081c0033","linkReferences":{}},"methodIdentifiers":{"computationSent(bytes32)":"dca588c1","coprocessorCallbackOutputsOnly(bytes32,bytes32,bytes[])":"58f6e29f","machineHash()":"25daa706","runExecution(bytes)":"39bdee65","taskIssuer()":"4af97440"},"id":6}