{"abi":[{"type":"constructor","inputs":[{"name":"_taskIssuerAddress","type":"address","internalType":"address"},{"name":"_machineHash","type":"bytes32","internalType":"bytes32"}],"stateMutability":"nonpayable"},{"type":"function","name":"computationSent","inputs":[{"name":"","type":"bytes32","internalType":"bytes32"}],"outputs":[{"name":"","type":"bool","internalType":"bool"}],"stateMutability":"view"},{"type":"function","name":"coprocessorCallbackOutputsOnly","inputs":[{"name":"_machineHash","type":"bytes32","internalType":"bytes32"},{"name":"_payloadHash","type":"bytes32","internalType":"bytes32"},{"name":"outputs","type":"bytes[]","internalType":"bytes[]"}],"outputs":[],"stateMutability":"nonpayable"},{"type":"function","name":"machineHash","inputs":[],"outputs":[{"name":"","type":"bytes32","internalType":"bytes32"}],"stateMutability":"view"},{"type":"function","name":"runExecution","inputs":[{"name":"input","type":"bytes","internalType":"bytes"}],"outputs":[],"stateMutability":"nonpayable"},{"type":"function","name":"taskIssuer","inputs":[],"outputs":[{"name":"","type":"address","internalType":"contract ITaskIssuer"}],"stateMutability":"view"},{"type":"event","name":"ResultReceived","inputs":[{"name":"payloadHash","type":"bytes32","indexed":false,"internalType":"bytes32"},{"name":"output","type":"bytes","indexed":false,"internalType":"bytes"}],"anonymous":false},{"type":"error","name":"ComputationNotFound","inputs":[{"name":"payloadHash","type":"bytes32","internalType":"bytes32"}]},{"type":"error","name":"InsufficientFunds","inputs":[{"name":"value","type":"uint256","internalType":"uint256"},{"name":"balance","type":"uint256","internalType":"uint256"}]},{"type":"error","name":"InvalidOutputLength","inputs":[{"name":"length","type":"uint256","internalType":"uint256"}]},{"type":"error","name":"InvalidOutputSelector","inputs":[{"name":"selector","type":"bytes4","internalType":"bytes4"},{"name":"expected","type":"bytes4","internalType":"bytes4"}]},{"type":"error","name":"MachineHashMismatch","inputs":[{"name":"current","type":"bytes32","internalType":"bytes32"},{"name":"expected","type":"bytes32","internalType":"bytes32"}]},{"type":"error","name":"UnauthorizedCaller","inputs":[{"name":"caller","type":"address","internalType":"address"}]}],"bytecode":{"object":"0x6080604052348015600e575f5ffd5b5060405161092b38038061092b833981016040819052602b916052565b600180546001600160a01b0319166001600160a01b0393909316929092179091555f556087565b5f5f604083850312156062575f5ffd5b82516001600160a01b03811681146077575f5ffd5b6020939093015192949293505050565b610897806100945f395ff3fe608060405234801561000f575f5ffd5b5060043610610055575f3560e01c806325daa7061461005957806339bdee65146100745780634af974401461008957806358f6e29f146100b4578063dca588c1146100c7575b5f5ffd5b6100615f5481565b6040519081526020015b60405180910390f35b6100876100823660046104db565b6100f9565b005b60015461009c906001600160a01b031681565b6040516001600160a01b03909116815260200161006b565b6100876100c2366004610549565b61013b565b6100e96100d53660046105c8565b60026020525f908152604090205460ff1681565b604051901515815260200161006b565b61013782828080601f0160208091040260200160405190810160405280939291908181526020018383808284375f9201919091525061030492505050565b5050565b6001546001600160a01b0316331461016d5760405163d86ad9cf60e01b81523360048201526024015b60405180910390fd5b5f54841461019b575f5460405163ce2509df60e01b8152610164918691600401918252602082015260400190565b5f8381526002602052604090205460ff166101cc57604051637268e7ab60e11b815260048101849052602401610164565b5f5b818110156102e957365f8484848181106101ea576101ea6105df565b90506020028101906101fc91906105f3565b90925090506003811161022557604051633dbd2b1360e11b815260048101829052602401610164565b5f610233600482848661063d565b61023c91610664565b9050365f61024d846004818861063d565b9092509050633da7291b60e01b6001600160e01b03198416016102845761027f8961027a8385018561073b565b61038d565b6102d8565b63dc857e9160e01b6001600160e01b03198416016102a65761027f82826103ca565b60405163bd210a1960e01b81526001600160e01b03198416600482015263c258d6e560e01b6024820152604401610164565b5050600190930192506101ce915050565b5050505f908152600260205260409020805460ff1916905550565b80516020808301919091205f81815260029092526040808320805460ff191660019081179091555492549051631590106b60e11b815291926001600160a01b031691632b2020d69161035c91869030906004016107a3565b5f604051808303815f87803b158015610373575f5ffd5b505af1158015610385573d5f5f3e3d5ffd5b505050505050565b7f11ee75453d1327abdfe4f7a8ad4821587837391f365bef110620811d7a2fa59182826040516103be9291906107d3565b60405180910390a15050565b5f8060606103da848601866107eb565b919450925090505f806103f76001600160a01b038616858561042c565b9092509050816104235760405162fae2d560e21b81526004810185905260248101829052604401610164565b50505050505050565b5f8030803180861115610445575f935091506104bf9050565b5f6060886001600160a01b03168888604051610461919061084b565b5f6040518083038185875af1925050503d805f811461049b576040519150601f19603f3d011682016040523d82523d5f602084013e6104a0565b606091505b509092509050816104b4576104b4816104c7565b506001945090925050505b935093915050565b80515f036104d3575f5ffd5b805181602001fd5b5f5f602083850312156104ec575f5ffd5b823567ffffffffffffffff811115610502575f5ffd5b8301601f81018513610512575f5ffd5b803567ffffffffffffffff811115610528575f5ffd5b856020828401011115610539575f5ffd5b6020919091019590945092505050565b5f5f5f5f6060858703121561055c575f5ffd5b8435935060208501359250604085013567ffffffffffffffff811115610580575f5ffd5b8501601f81018713610590575f5ffd5b803567ffffffffffffffff8111156105a6575f5ffd5b8760208260051b84010111156105ba575f5ffd5b949793965060200194505050565b5f602082840312156105d8575f5ffd5b5035919050565b634e487b7160e01b5f52603260045260245ffd5b5f5f8335601e19843603018112610608575f5ffd5b83018035915067ffffffffffffffff821115610622575f5ffd5b602001915036819003821315610636575f5ffd5b9250929050565b5f5f8585111561064b575f5ffd5b83861115610657575f5ffd5b5050820193919092039150565b80356001600160e01b03198116906004841015610695576001600160e01b0319600485900360031b81901b82161691505b5092915050565b634e487b7160e01b5f52604160045260245ffd5b5f82601f8301126106bf575f5ffd5b813567ffffffffffffffff8111156106d9576106d961069c565b604051601f8201601f19908116603f0116810167ffffffffffffffff811182821017156107085761070861069c565b60405281815283820160200185101561071f575f5ffd5b816020850160208301375f918101602001919091529392505050565b5f6020828403121561074b575f5ffd5b813567ffffffffffffffff811115610761575f5ffd5b61076d848285016106b0565b949350505050565b5f81518084528060208401602086015e5f602082860101526020601f19601f83011685010191505092915050565b838152606060208201525f6107bb6060830185610775565b905060018060a01b0383166040830152949350505050565b828152604060208201525f61076d6040830184610775565b5f5f5f606084860312156107fd575f5ffd5b83356001600160a01b0381168114610813575f5ffd5b925060208401359150604084013567ffffffffffffffff811115610835575f5ffd5b610841868287016106b0565b9150509250925092565b5f82518060208501845e5f92019182525091905056fea2646970667358221220546db25554014e2743152439f385347ff16e8c2389310a059930203a9e3548dd64736f6c634300081c0033","linkReferences":{}},"methodIdentifiers":{"computationSent(bytes32)":"dca588c1","coprocessorCallbackOutputsOnly(bytes32,bytes32,bytes[])":"58f6e29f","machineHash()":"25daa706","runExecution(bytes)":"39bdee65","taskIssuer()":"4af97440"},"id":6}